{
  "contractName": "Bank",
  "abi": [
    {
      "anonymous": false,
      "inputs": [
        {
          "indexed": true,
          "internalType": "address",
          "name": "account",
          "type": "address"
        }
      ],
      "name": "AccountActivation",
      "type": "event"
    },
    {
      "anonymous": false,
      "inputs": [
        {
          "indexed": true,
          "internalType": "address",
          "name": "from",
          "type": "address"
        },
        {
          "indexed": true,
          "internalType": "address",
          "name": "account",
          "type": "address"
        },
        {
          "indexed": false,
          "internalType": "uint256",
          "name": "amount",
          "type": "uint256"
        }
      ],
      "name": "Deposit",
      "type": "event"
    },
    {
      "anonymous": false,
      "inputs": [
        {
          "indexed": false,
          "internalType": "uint8",
          "name": "version",
          "type": "uint8"
        }
      ],
      "name": "Initialized",
      "type": "event"
    },
    {
      "anonymous": false,
      "inputs": [
        {
          "indexed": true,
          "internalType": "address",
          "name": "from",
          "type": "address"
        },
        {
          "indexed": true,
          "internalType": "address",
          "name": "To",
          "type": "address"
        },
        {
          "indexed": false,
          "internalType": "uint256",
          "name": "amount",
          "type": "uint256"
        }
      ],
      "name": "Transfer",
      "type": "event"
    },
    {
      "inputs": [
        {
          "internalType": "address",
          "name": "",
          "type": "address"
        }
      ],
      "name": "_accounts",
      "outputs": [
        {
          "internalType": "bool",
          "name": "activated",
          "type": "bool"
        },
        {
          "internalType": "uint256",
          "name": "balance",
          "type": "uint256"
        }
      ],
      "stateMutability": "view",
      "type": "function",
      "constant": true
    },
    {
      "inputs": [],
      "name": "_owner",
      "outputs": [
        {
          "internalType": "address",
          "name": "",
          "type": "address"
        }
      ],
      "stateMutability": "view",
      "type": "function",
      "constant": true
    },
    {
      "inputs": [
        {
          "internalType": "address",
          "name": "owner",
          "type": "address"
        }
      ],
      "name": "Bank_init",
      "outputs": [],
      "stateMutability": "nonpayable",
      "type": "function"
    },
    {
      "inputs": [
        {
          "internalType": "address",
          "name": "account",
          "type": "address"
        }
      ],
      "name": "activateAccount",
      "outputs": [],
      "stateMutability": "nonpayable",
      "type": "function"
    },
    {
      "inputs": [
        {
          "internalType": "address",
          "name": "account",
          "type": "address"
        },
        {
          "internalType": "uint256",
          "name": "funds",
          "type": "uint256"
        }
      ],
      "name": "depositFunds",
      "outputs": [],
      "stateMutability": "nonpayable",
      "type": "function"
    },
    {
      "inputs": [
        {
          "internalType": "address",
          "name": "To",
          "type": "address"
        },
        {
          "internalType": "uint256",
          "name": "funds",
          "type": "uint256"
        }
      ],
      "name": "transferFunds",
      "outputs": [],
      "stateMutability": "nonpayable",
      "type": "function"
    }
  ],
  "bytecode": "0x608060405234801561001057600080fd5b50611183806100206000396000f3fe608060405234801561001057600080fd5b50600436106100625760003560e01c806382a6213714610067578063921b004b14610083578063990dc9db1461009f578063a59bed58146100bb578063b2bdfa7b146100ec578063d4762aca1461010a575b600080fd5b610081600480360381019061007c9190610c99565b610126565b005b61009d60048036038101906100989190610cfc565b610395565b005b6100b960048036038101906100b49190610cfc565b610626565b005b6100d560048036038101906100d09190610c99565b610a44565b6040516100e3929190610d66565b60405180910390f35b6100f4610a75565b6040516101019190610d9e565b60405180910390f35b610124600480360381019061011f9190610c99565b610a9b565b005b338073ffffffffffffffffffffffffffffffffffffffff16600260009054906101000a900473ffffffffffffffffffffffffffffffffffffffff1673ffffffffffffffffffffffffffffffffffffffff16146101b7576040517f08c379a00000000000000000000000000000000000000000000000000000000081526004016101ae90610e16565b60405180910390fd5b816000801561025b57600160008373ffffffffffffffffffffffffffffffffffffffff1673ffffffffffffffffffffffffffffffffffffffff16815260200190815260200160002060000160009054906101000a900460ff1615156001151514610256576040517f08c379a000000000000000000000000000000000000000000000000000000000815260040161024d90610e82565b60405180910390fd5b6102f2565b600160008373ffffffffffffffffffffffffffffffffffffffff1673ffffffffffffffffffffffffffffffffffffffff16815260200190815260200160002060000160009054906101000a900460ff16151560001515146102f1576040517f08c379a00000000000000000000000000000000000000000000000000000000081526004016102e890610eee565b60405180910390fd5b5b60018060008673ffffffffffffffffffffffffffffffffffffffff1673ffffffffffffffffffffffffffffffffffffffff16815260200190815260200160002060000160006101000a81548160ff0219169083151502179055508373ffffffffffffffffffffffffffffffffffffffff167f4c9ae0978fea49477e19c70cbad0b4ff481cb0235f3b8694cf48c9e40c52a4f360405160405180910390a250505050565b338073ffffffffffffffffffffffffffffffffffffffff16600260009054906101000a900473ffffffffffffffffffffffffffffffffffffffff1673ffffffffffffffffffffffffffffffffffffffff1614610426576040517f08c379a000000000000000000000000000000000000000000000000000000000815260040161041d90610e16565b60405180910390fd5b82600180156104ca57600160008373ffffffffffffffffffffffffffffffffffffffff1673ffffffffffffffffffffffffffffffffffffffff16815260200190815260200160002060000160009054906101000a900460ff16151560011515146104c5576040517f08c379a00000000000000000000000000000000000000000000000000000000081526004016104bc90610e82565b60405180910390fd5b610561565b600160008373ffffffffffffffffffffffffffffffffffffffff1673ffffffffffffffffffffffffffffffffffffffff16815260200190815260200160002060000160009054906101000a900460ff1615156000151514610560576040517f08c379a000000000000000000000000000000000000000000000000000000000815260040161055790610eee565b60405180910390fd5b5b83600160008773ffffffffffffffffffffffffffffffffffffffff1673ffffffffffffffffffffffffffffffffffffffff16815260200190815260200160002060010160008282546105b39190610f3d565b925050819055508473ffffffffffffffffffffffffffffffffffffffff163373ffffffffffffffffffffffffffffffffffffffff167f5548c837ab068cf56a2c2479df0882a4922fd203edb7517321831d95078c5f62866040516106179190610f93565b60405180910390a35050505050565b33600180156106ca57600160008373ffffffffffffffffffffffffffffffffffffffff1673ffffffffffffffffffffffffffffffffffffffff16815260200190815260200160002060000160009054906101000a900460ff16151560011515146106c5576040517f08c379a00000000000000000000000000000000000000000000000000000000081526004016106bc90610e82565b60405180910390fd5b610761565b600160008373ffffffffffffffffffffffffffffffffffffffff1673ffffffffffffffffffffffffffffffffffffffff16815260200190815260200160002060000160009054906101000a900460ff1615156000151514610760576040517f08c379a000000000000000000000000000000000000000000000000000000000815260040161075790610eee565b60405180910390fd5b5b836001801561080557600160008373ffffffffffffffffffffffffffffffffffffffff1673ffffffffffffffffffffffffffffffffffffffff16815260200190815260200160002060000160009054906101000a900460ff1615156001151514610800576040517f08c379a00000000000000000000000000000000000000000000000000000000081526004016107f790610e82565b60405180910390fd5b61089c565b600160008373ffffffffffffffffffffffffffffffffffffffff1673ffffffffffffffffffffffffffffffffffffffff16815260200190815260200160002060000160009054906101000a900460ff161515600015151461089b576040517f08c379a000000000000000000000000000000000000000000000000000000000815260040161089290610eee565b60405180910390fd5b5b338580600160008473ffffffffffffffffffffffffffffffffffffffff1673ffffffffffffffffffffffffffffffffffffffff168152602001908152602001600020600101541015610923576040517f08c379a000000000000000000000000000000000000000000000000000000000815260040161091a90610ffa565b60405180910390fd5b86600160003373ffffffffffffffffffffffffffffffffffffffff1673ffffffffffffffffffffffffffffffffffffffff1681526020019081526020016000206001016000828254610975919061101a565b9250508190555086600160008a73ffffffffffffffffffffffffffffffffffffffff1673ffffffffffffffffffffffffffffffffffffffff16815260200190815260200160002060010160008282546109ce9190610f3d565b925050819055508773ffffffffffffffffffffffffffffffffffffffff163373ffffffffffffffffffffffffffffffffffffffff167f5548c837ab068cf56a2c2479df0882a4922fd203edb7517321831d95078c5f6289604051610a329190610f93565b60405180910390a35050505050505050565b60016020528060005260406000206000915090508060000160009054906101000a900460ff16908060010154905082565b600260009054906101000a900473ffffffffffffffffffffffffffffffffffffffff1681565b60008060019054906101000a900460ff16159050808015610acc5750600160008054906101000a900460ff1660ff16105b80610af95750610adb30610c13565b158015610af85750600160008054906101000a900460ff1660ff16145b5b610b38576040517f08c379a0000000000000000000000000000000000000000000000000000000008152600401610b2f906110c0565b60405180910390fd5b60016000806101000a81548160ff021916908360ff1602179055508015610b75576001600060016101000a81548160ff0219169083151502179055505b81600260006101000a81548173ffffffffffffffffffffffffffffffffffffffff021916908373ffffffffffffffffffffffffffffffffffffffff1602179055508015610c0f5760008060016101000a81548160ff0219169083151502179055507f7f26b83ff96e1f2b6a682f133852f6798a09c465da95921460cefb38474024986001604051610c069190611132565b60405180910390a15b5050565b6000808273ffffffffffffffffffffffffffffffffffffffff163b119050919050565b600080fd5b600073ffffffffffffffffffffffffffffffffffffffff82169050919050565b6000610c6682610c3b565b9050919050565b610c7681610c5b565b8114610c8157600080fd5b50565b600081359050610c9381610c6d565b92915050565b600060208284031215610caf57610cae610c36565b5b6000610cbd84828501610c84565b91505092915050565b6000819050919050565b610cd981610cc6565b8114610ce457600080fd5b50565b600081359050610cf681610cd0565b92915050565b60008060408385031215610d1357610d12610c36565b5b6000610d2185828601610c84565b9250506020610d3285828601610ce7565b9150509250929050565b60008115159050919050565b610d5181610d3c565b82525050565b610d6081610cc6565b82525050565b6000604082019050610d7b6000830185610d48565b610d886020830184610d57565b9392505050565b610d9881610c5b565b82525050565b6000602082019050610db36000830184610d8f565b92915050565b600082825260208201905092915050565b7f4e6f7420746865206f776e657200000000000000000000000000000000000000600082015250565b6000610e00600d83610db9565b9150610e0b82610dca565b602082019050919050565b60006020820190508181036000830152610e2f81610df3565b9050919050565b7f4163636f756e74206d7573742062652061637469766174656400000000000000600082015250565b6000610e6c601983610db9565b9150610e7782610e36565b602082019050919050565b60006020820190508181036000830152610e9b81610e5f565b9050919050565b7f4163636f756e7420697320616c72656164792061637469766174656400000000600082015250565b6000610ed8601c83610db9565b9150610ee382610ea2565b602082019050919050565b60006020820190508181036000830152610f0781610ecb565b9050919050565b7f4e487b7100000000000000000000000000000000000000000000000000000000600052601160045260246000fd5b6000610f4882610cc6565b9150610f5383610cc6565b9250827fffffffffffffffffffffffffffffffffffffffffffffffffffffffffffffffff03821115610f8857610f87610f0e565b5b828201905092915050565b6000602082019050610fa86000830184610d57565b92915050565b7f4e6f7420656e6f7567682062616c616e63650000000000000000000000000000600082015250565b6000610fe4601283610db9565b9150610fef82610fae565b602082019050919050565b6000602082019050818103600083015261101381610fd7565b9050919050565b600061102582610cc6565b915061103083610cc6565b92508282101561104357611042610f0e565b5b828203905092915050565b7f496e697469616c697a61626c653a20636f6e747261637420697320616c72656160008201527f647920696e697469616c697a6564000000000000000000000000000000000000602082015250565b60006110aa602e83610db9565b91506110b58261104e565b604082019050919050565b600060208201905081810360008301526110d98161109d565b9050919050565b6000819050919050565b600060ff82169050919050565b6000819050919050565b600061111c611117611112846110e0565b6110f7565b6110ea565b9050919050565b61112c81611101565b82525050565b60006020820190506111476000830184611123565b9291505056fea264697066735822122043c0c2e837806e57c3a8e7f7c2a5a585dde853b13f4ca25355b5166fce5a638264736f6c634300080a0033",
  "immutableReferences": {},
  "source": "// SPDX-License-Identifier: GPL-3.0\r\n\r\npragma solidity 0.8.10;\r\n\r\nimport './IBank.sol';\r\nimport \"@openzeppelin/contracts/proxy/utils/Initializable.sol\";\r\nimport \"@openzeppelin/contracts/proxy/transparent/TransparentUpgradeableProxy.sol\";\r\n\r\n\r\ncontract Bank is IBank, Initializable {\r\n    // state\r\n    struct Account{\r\n        bool activated;\r\n        uint256 balance;\r\n    }\r\n\r\n    mapping(address => Account) public _accounts;\r\n    address public _owner;\r\n\r\n    // events\r\n    event AccountActivation(address indexed account);\r\n    event Deposit(address indexed from, address indexed account, uint256 amount);\r\n    event Transfer(address indexed from, address indexed To, uint256 amount);\r\n\r\n    // modifiers\r\n    modifier checkAccountActivation(address account, bool Activated){\r\n        if(Activated) require(true == _accounts[account].activated, \"Account must be activated\");\r\n        else require(false == _accounts[account].activated, \"Account is already activated\");\r\n        _;\r\n    }\r\n\r\n    modifier isOwner(address account){\r\n        require(_owner == account, \"Not the owner\");\r\n        _;\r\n    }\r\n\r\n    modifier isBalanceEnough(address account, uint256 amount){\r\n        require(_accounts[account].balance >= amount, \"Not enough balance\");\r\n        _;\r\n    }\r\n\r\n    // initializer\r\n    function Bank_init(address owner) public initializer {\r\n        _owner = owner;\r\n    }\r\n\r\n    // functions\r\n    function activateAccount(address account) external\r\n        isOwner(msg.sender)\r\n        checkAccountActivation(account, false)\r\n    {\r\n        _accounts[account].activated = true;\r\n\r\n        emit AccountActivation(account);\r\n    }\r\n\r\n    function depositFunds(address account, uint256 funds) external\r\n        isOwner(msg.sender)\r\n        checkAccountActivation(account, true)\r\n    {\r\n        _accounts[account].balance += funds;\r\n\r\n        emit Deposit(msg.sender, account, funds);\r\n    }\r\n\r\n    function transferFunds(address To, uint256 funds) external\r\n        checkAccountActivation(msg.sender, true)\r\n        checkAccountActivation(To, true)\r\n        isBalanceEnough(msg.sender, funds)\r\n    {\r\n        _accounts[msg.sender].balance -= funds;\r\n        _accounts[To].balance += funds;\r\n\r\n        emit Deposit(msg.sender, To, funds);\r\n    }\r\n}",
  "sourcePath": "C:\\Users\\d-aam\\GitHub\\IOBuildersTest\\Blockchain\\contracts\\Bank.sol",
  "compiler": {
    "name": "solc",
    "version": "0.8.10+commit.fc410830.Emscripten.clang"
  },
  "schemaVersion": "3.4.3",
  "updatedAt": "2022-07-07T06:13:39.113Z",
  "networkType": "ethereum",
  "devdoc": {
    "kind": "dev",
    "methods": {},
    "version": 1
  },
  "userdoc": {
    "kind": "user",
    "methods": {},
    "version": 1
  }
}