{
  "contractName": "Bank",
  "abi": [
    {
      "anonymous": false,
      "inputs": [
        {
          "indexed": true,
          "internalType": "address",
          "name": "account",
          "type": "address"
        }
      ],
      "name": "AccountActivation",
      "type": "event"
    },
    {
      "anonymous": false,
      "inputs": [
        {
          "indexed": true,
          "internalType": "address",
          "name": "from",
          "type": "address"
        },
        {
          "indexed": true,
          "internalType": "address",
          "name": "account",
          "type": "address"
        },
        {
          "indexed": false,
          "internalType": "uint256",
          "name": "amount",
          "type": "uint256"
        }
      ],
      "name": "Deposit",
      "type": "event"
    },
    {
      "anonymous": false,
      "inputs": [
        {
          "indexed": false,
          "internalType": "uint8",
          "name": "version",
          "type": "uint8"
        }
      ],
      "name": "Initialized",
      "type": "event"
    },
    {
      "anonymous": false,
      "inputs": [
        {
          "indexed": true,
          "internalType": "address",
          "name": "from",
          "type": "address"
        },
        {
          "indexed": true,
          "internalType": "address",
          "name": "To",
          "type": "address"
        },
        {
          "indexed": false,
          "internalType": "uint256",
          "name": "amount",
          "type": "uint256"
        }
      ],
      "name": "Transfer",
      "type": "event"
    },
    {
      "inputs": [
        {
          "internalType": "address",
          "name": "",
          "type": "address"
        }
      ],
      "name": "_accounts",
      "outputs": [
        {
          "internalType": "bool",
          "name": "activated",
          "type": "bool"
        },
        {
          "internalType": "uint256",
          "name": "balance",
          "type": "uint256"
        }
      ],
      "stateMutability": "view",
      "type": "function",
      "constant": true
    },
    {
      "inputs": [],
      "name": "_owner",
      "outputs": [
        {
          "internalType": "address",
          "name": "",
          "type": "address"
        }
      ],
      "stateMutability": "view",
      "type": "function",
      "constant": true
    },
    {
      "inputs": [
        {
          "internalType": "address",
          "name": "owner",
          "type": "address"
        }
      ],
      "name": "Bank_init",
      "outputs": [],
      "stateMutability": "nonpayable",
      "type": "function"
    },
    {
      "inputs": [
        {
          "internalType": "address",
          "name": "account",
          "type": "address"
        }
      ],
      "name": "activateAccount",
      "outputs": [],
      "stateMutability": "nonpayable",
      "type": "function"
    },
    {
      "inputs": [
        {
          "internalType": "address",
          "name": "account",
          "type": "address"
        },
        {
          "internalType": "uint256",
          "name": "funds",
          "type": "uint256"
        }
      ],
      "name": "depositFunds",
      "outputs": [],
      "stateMutability": "nonpayable",
      "type": "function"
    },
    {
      "inputs": [
        {
          "internalType": "address",
          "name": "To",
          "type": "address"
        },
        {
          "internalType": "uint256",
          "name": "funds",
          "type": "uint256"
        }
      ],
      "name": "transferFunds",
      "outputs": [],
      "stateMutability": "nonpayable",
      "type": "function"
    },
    {
      "inputs": [
        {
          "internalType": "address",
          "name": "From",
          "type": "address"
        },
        {
          "internalType": "address",
          "name": "To",
          "type": "address"
        },
        {
          "internalType": "uint256",
          "name": "funds",
          "type": "uint256"
        }
      ],
      "name": "transferFundsFor",
      "outputs": [],
      "stateMutability": "nonpayable",
      "type": "function"
    }
  ],
  "bytecode": "0x608060405234801561001057600080fd5b506112bf806100206000396000f3fe608060405234801561001057600080fd5b506004361061007d5760003560e01c8063990dc9db1161005b578063990dc9db146100d6578063a59bed58146100f2578063b2bdfa7b14610123578063d4762aca146101415761007d565b80637f3c6fb71461008257806382a621371461009e578063921b004b146100ba575b600080fd5b61009c60048036038101906100979190610db8565b61015d565b005b6100b860048036038101906100b39190610e0b565b6101ff565b005b6100d460048036038101906100cf9190610e38565b61046e565b005b6100f060048036038101906100eb9190610e38565b6106ff565b005b61010c60048036038101906101079190610e0b565b61070e565b60405161011a929190610ea2565b60405180910390f35b61012b61073f565b6040516101389190610eda565b60405180910390f35b61015b60048036038101906101569190610e0b565b610765565b005b338073ffffffffffffffffffffffffffffffffffffffff16600260009054906101000a900473ffffffffffffffffffffffffffffffffffffffff1673ffffffffffffffffffffffffffffffffffffffff16146101ee576040517f08c379a00000000000000000000000000000000000000000000000000000000081526004016101e590610f52565b60405180910390fd5b6101f98484846108dd565b50505050565b338073ffffffffffffffffffffffffffffffffffffffff16600260009054906101000a900473ffffffffffffffffffffffffffffffffffffffff1673ffffffffffffffffffffffffffffffffffffffff1614610290576040517f08c379a000000000000000000000000000000000000000000000000000000000815260040161028790610f52565b60405180910390fd5b816000801561033457600160008373ffffffffffffffffffffffffffffffffffffffff1673ffffffffffffffffffffffffffffffffffffffff16815260200190815260200160002060000160009054906101000a900460ff161515600115151461032f576040517f08c379a000000000000000000000000000000000000000000000000000000000815260040161032690610fbe565b60405180910390fd5b6103cb565b600160008373ffffffffffffffffffffffffffffffffffffffff1673ffffffffffffffffffffffffffffffffffffffff16815260200190815260200160002060000160009054906101000a900460ff16151560001515146103ca576040517f08c379a00000000000000000000000000000000000000000000000000000000081526004016103c19061102a565b60405180910390fd5b5b60018060008673ffffffffffffffffffffffffffffffffffffffff1673ffffffffffffffffffffffffffffffffffffffff16815260200190815260200160002060000160006101000a81548160ff0219169083151502179055508373ffffffffffffffffffffffffffffffffffffffff167f4c9ae0978fea49477e19c70cbad0b4ff481cb0235f3b8694cf48c9e40c52a4f360405160405180910390a250505050565b338073ffffffffffffffffffffffffffffffffffffffff16600260009054906101000a900473ffffffffffffffffffffffffffffffffffffffff1673ffffffffffffffffffffffffffffffffffffffff16146104ff576040517f08c379a00000000000000000000000000000000000000000000000000000000081526004016104f690610f52565b60405180910390fd5b82600180156105a357600160008373ffffffffffffffffffffffffffffffffffffffff1673ffffffffffffffffffffffffffffffffffffffff16815260200190815260200160002060000160009054906101000a900460ff161515600115151461059e576040517f08c379a000000000000000000000000000000000000000000000000000000000815260040161059590610fbe565b60405180910390fd5b61063a565b600160008373ffffffffffffffffffffffffffffffffffffffff1673ffffffffffffffffffffffffffffffffffffffff16815260200190815260200160002060000160009054906101000a900460ff1615156000151514610639576040517f08c379a00000000000000000000000000000000000000000000000000000000081526004016106309061102a565b60405180910390fd5b5b83600160008773ffffffffffffffffffffffffffffffffffffffff1673ffffffffffffffffffffffffffffffffffffffff168152602001908152602001600020600101600082825461068c9190611079565b925050819055508473ffffffffffffffffffffffffffffffffffffffff163373ffffffffffffffffffffffffffffffffffffffff167f5548c837ab068cf56a2c2479df0882a4922fd203edb7517321831d95078c5f62866040516106f091906110cf565b60405180910390a35050505050565b61070a3383836108dd565b5050565b60016020528060005260406000206000915090508060000160009054906101000a900460ff16908060010154905082565b600260009054906101000a900473ffffffffffffffffffffffffffffffffffffffff1681565b60008060019054906101000a900460ff161590508080156107965750600160008054906101000a900460ff1660ff16105b806107c357506107a530610cfc565b1580156107c25750600160008054906101000a900460ff1660ff16145b5b610802576040517f08c379a00000000000000000000000000000000000000000000000000000000081526004016107f99061115c565b60405180910390fd5b60016000806101000a81548160ff021916908360ff160217905550801561083f576001600060016101000a81548160ff0219169083151502179055505b81600260006101000a81548173ffffffffffffffffffffffffffffffffffffffff021916908373ffffffffffffffffffffffffffffffffffffffff16021790555080156108d95760008060016101000a81548160ff0219169083151502179055507f7f26b83ff96e1f2b6a682f133852f6798a09c465da95921460cefb384740249860016040516108d091906111ce565b60405180910390a15b5050565b826001801561098157600160008373ffffffffffffffffffffffffffffffffffffffff1673ffffffffffffffffffffffffffffffffffffffff16815260200190815260200160002060000160009054906101000a900460ff161515600115151461097c576040517f08c379a000000000000000000000000000000000000000000000000000000000815260040161097390610fbe565b60405180910390fd5b610a18565b600160008373ffffffffffffffffffffffffffffffffffffffff1673ffffffffffffffffffffffffffffffffffffffff16815260200190815260200160002060000160009054906101000a900460ff1615156000151514610a17576040517f08c379a0000000000000000000000000000000000000000000000000000000008152600401610a0e9061102a565b60405180910390fd5b5b8360018015610abc57600160008373ffffffffffffffffffffffffffffffffffffffff1673ffffffffffffffffffffffffffffffffffffffff16815260200190815260200160002060000160009054906101000a900460ff1615156001151514610ab7576040517f08c379a0000000000000000000000000000000000000000000000000000000008152600401610aae90610fbe565b60405180910390fd5b610b53565b600160008373ffffffffffffffffffffffffffffffffffffffff1673ffffffffffffffffffffffffffffffffffffffff16815260200190815260200160002060000160009054906101000a900460ff1615156000151514610b52576040517f08c379a0000000000000000000000000000000000000000000000000000000008152600401610b499061102a565b60405180910390fd5b5b868580600160008473ffffffffffffffffffffffffffffffffffffffff1673ffffffffffffffffffffffffffffffffffffffff168152602001908152602001600020600101541015610bda576040517f08c379a0000000000000000000000000000000000000000000000000000000008152600401610bd190611235565b60405180910390fd5b86600160008b73ffffffffffffffffffffffffffffffffffffffff1673ffffffffffffffffffffffffffffffffffffffff1681526020019081526020016000206001016000828254610c2c9190611255565b9250508190555086600160008a73ffffffffffffffffffffffffffffffffffffffff1673ffffffffffffffffffffffffffffffffffffffff1681526020019081526020016000206001016000828254610c859190611079565b925050819055508773ffffffffffffffffffffffffffffffffffffffff168973ffffffffffffffffffffffffffffffffffffffff167fddf252ad1be2c89b69c2b068fc378daa952ba7f163c4a11628f55a4df523b3ef89604051610ce991906110cf565b60405180910390a3505050505050505050565b6000808273ffffffffffffffffffffffffffffffffffffffff163b119050919050565b600080fd5b600073ffffffffffffffffffffffffffffffffffffffff82169050919050565b6000610d4f82610d24565b9050919050565b610d5f81610d44565b8114610d6a57600080fd5b50565b600081359050610d7c81610d56565b92915050565b6000819050919050565b610d9581610d82565b8114610da057600080fd5b50565b600081359050610db281610d8c565b92915050565b600080600060608486031215610dd157610dd0610d1f565b5b6000610ddf86828701610d6d565b9350506020610df086828701610d6d565b9250506040610e0186828701610da3565b9150509250925092565b600060208284031215610e2157610e20610d1f565b5b6000610e2f84828501610d6d565b91505092915050565b60008060408385031215610e4f57610e4e610d1f565b5b6000610e5d85828601610d6d565b9250506020610e6e85828601610da3565b9150509250929050565b60008115159050919050565b610e8d81610e78565b82525050565b610e9c81610d82565b82525050565b6000604082019050610eb76000830185610e84565b610ec46020830184610e93565b9392505050565b610ed481610d44565b82525050565b6000602082019050610eef6000830184610ecb565b92915050565b600082825260208201905092915050565b7f4e6f7420746865206f776e657200000000000000000000000000000000000000600082015250565b6000610f3c600d83610ef5565b9150610f4782610f06565b602082019050919050565b60006020820190508181036000830152610f6b81610f2f565b9050919050565b7f4163636f756e74206d7573742062652061637469766174656400000000000000600082015250565b6000610fa8601983610ef5565b9150610fb382610f72565b602082019050919050565b60006020820190508181036000830152610fd781610f9b565b9050919050565b7f4163636f756e7420697320616c72656164792061637469766174656400000000600082015250565b6000611014601c83610ef5565b915061101f82610fde565b602082019050919050565b6000602082019050818103600083015261104381611007565b9050919050565b7f4e487b7100000000000000000000000000000000000000000000000000000000600052601160045260246000fd5b600061108482610d82565b915061108f83610d82565b9250827fffffffffffffffffffffffffffffffffffffffffffffffffffffffffffffffff038211156110c4576110c361104a565b5b828201905092915050565b60006020820190506110e46000830184610e93565b92915050565b7f496e697469616c697a61626c653a20636f6e747261637420697320616c72656160008201527f647920696e697469616c697a6564000000000000000000000000000000000000602082015250565b6000611146602e83610ef5565b9150611151826110ea565b604082019050919050565b6000602082019050818103600083015261117581611139565b9050919050565b6000819050919050565b600060ff82169050919050565b6000819050919050565b60006111b86111b36111ae8461117c565b611193565b611186565b9050919050565b6111c88161119d565b82525050565b60006020820190506111e360008301846111bf565b92915050565b7f4e6f7420656e6f7567682062616c616e63650000000000000000000000000000600082015250565b600061121f601283610ef5565b915061122a826111e9565b602082019050919050565b6000602082019050818103600083015261124e81611212565b9050919050565b600061126082610d82565b915061126b83610d82565b92508282101561127e5761127d61104a565b5b82820390509291505056fea264697066735822122012dda52846704750cc698eca0a11c71c65c3b58690dd567666d2fc566d505e7864736f6c634300080a0033",
  "immutableReferences": {},
  "source": "// SPDX-License-Identifier: GPL-3.0\r\n\r\npragma solidity 0.8.10;\r\n\r\nimport './IBank.sol';\r\nimport \"@openzeppelin/contracts/proxy/utils/Initializable.sol\";\r\nimport \"@openzeppelin/contracts/proxy/transparent/TransparentUpgradeableProxy.sol\";\r\n\r\n\r\ncontract Bank is IBank, Initializable {\r\n    // state\r\n    struct Account{\r\n        bool activated;\r\n        uint256 balance;\r\n    }\r\n\r\n    mapping(address => Account) public _accounts;\r\n    address public _owner;\r\n\r\n    // events\r\n    event AccountActivation(address indexed account);\r\n    event Deposit(address indexed from, address indexed account, uint256 amount);\r\n    event Transfer(address indexed from, address indexed To, uint256 amount);\r\n\r\n    // modifiers\r\n    modifier checkAccountActivation(address account, bool Activated){\r\n        if(Activated) require(true == _accounts[account].activated, \"Account must be activated\");\r\n        else require(false == _accounts[account].activated, \"Account is already activated\");\r\n        _;\r\n    }\r\n\r\n    modifier isOwner(address account){\r\n        require(_owner == account, \"Not the owner\");\r\n        _;\r\n    }\r\n\r\n    modifier isBalanceEnough(address account, uint256 amount){\r\n        require(_accounts[account].balance >= amount, \"Not enough balance\");\r\n        _;\r\n    }\r\n\r\n    // initializer\r\n    function Bank_init(address owner) public initializer {\r\n        _owner = owner;\r\n    }\r\n\r\n    // functions\r\n    function activateAccount(address account) external\r\n        isOwner(msg.sender)\r\n        checkAccountActivation(account, false)\r\n    {\r\n        _accounts[account].activated = true;\r\n\r\n        emit AccountActivation(account);\r\n    }\r\n\r\n    function depositFunds(address account, uint256 funds) external\r\n        isOwner(msg.sender)\r\n        checkAccountActivation(account, true)\r\n    {\r\n        _accounts[account].balance += funds;\r\n\r\n        emit Deposit(msg.sender, account, funds);\r\n    }\r\n\r\n    function transferFunds(address To, uint256 funds) external\r\n    {\r\n       transferFundsFromTo(msg.sender, To, funds);\r\n    }\r\n\r\n    function transferFundsFor(address From, address To, uint256 funds) external\r\n        isOwner(msg.sender)\r\n    {\r\n       transferFundsFromTo(From, To, funds);\r\n\r\n    }\r\n\r\n\r\n    function transferFundsFromTo(address From, address To, uint256 funds) internal\r\n        checkAccountActivation(From, true)\r\n        checkAccountActivation(To, true)\r\n        isBalanceEnough(From, funds)\r\n    {\r\n        _accounts[From].balance -= funds;\r\n        _accounts[To].balance += funds;\r\n\r\n        emit Transfer(From, To, funds);\r\n    }\r\n\r\n}",
  "sourcePath": "C:\\Users\\d-aam\\GitHub\\IOBuildersTest\\Blockchain\\contracts\\Bank.sol",
  "compiler": {
    "name": "solc",
    "version": "0.8.10+commit.fc410830.Emscripten.clang"
  },
  "schemaVersion": "3.4.3",
  "updatedAt": "2022-07-07T11:43:43.718Z",
  "networkType": "ethereum",
  "devdoc": {
    "kind": "dev",
    "methods": {},
    "version": 1
  },
  "userdoc": {
    "kind": "user",
    "methods": {},
    "version": 1
  }
}