{
  "contractName": "Bank",
  "abi": [
    {
      "inputs": [
        {
          "internalType": "address",
          "name": "owner",
          "type": "address"
        }
      ],
      "stateMutability": "nonpayable",
      "type": "constructor"
    },
    {
      "anonymous": false,
      "inputs": [
        {
          "indexed": true,
          "internalType": "address",
          "name": "account",
          "type": "address"
        }
      ],
      "name": "AccountActivation",
      "type": "event"
    },
    {
      "anonymous": false,
      "inputs": [
        {
          "indexed": true,
          "internalType": "address",
          "name": "from",
          "type": "address"
        },
        {
          "indexed": true,
          "internalType": "address",
          "name": "account",
          "type": "address"
        },
        {
          "indexed": false,
          "internalType": "uint256",
          "name": "amount",
          "type": "uint256"
        }
      ],
      "name": "Deposit",
      "type": "event"
    },
    {
      "anonymous": false,
      "inputs": [
        {
          "indexed": true,
          "internalType": "address",
          "name": "from",
          "type": "address"
        },
        {
          "indexed": true,
          "internalType": "address",
          "name": "To",
          "type": "address"
        },
        {
          "indexed": false,
          "internalType": "uint256",
          "name": "amount",
          "type": "uint256"
        }
      ],
      "name": "Transfer",
      "type": "event"
    },
    {
      "inputs": [
        {
          "internalType": "address",
          "name": "account",
          "type": "address"
        }
      ],
      "name": "activateAccount",
      "outputs": [],
      "stateMutability": "nonpayable",
      "type": "function"
    },
    {
      "inputs": [
        {
          "internalType": "address",
          "name": "account",
          "type": "address"
        },
        {
          "internalType": "uint256",
          "name": "funds",
          "type": "uint256"
        }
      ],
      "name": "depositFunds",
      "outputs": [],
      "stateMutability": "nonpayable",
      "type": "function"
    },
    {
      "inputs": [
        {
          "internalType": "address",
          "name": "To",
          "type": "address"
        },
        {
          "internalType": "uint256",
          "name": "funds",
          "type": "uint256"
        }
      ],
      "name": "transferFunds",
      "outputs": [],
      "stateMutability": "nonpayable",
      "type": "function"
    }
  ],
  "bytecode": "0x608060405234801561001057600080fd5b50604051610ea4380380610ea4833981810160405281019061003291906100dc565b80600160006101000a81548173ffffffffffffffffffffffffffffffffffffffff021916908373ffffffffffffffffffffffffffffffffffffffff16021790555050610109565b600080fd5b600073ffffffffffffffffffffffffffffffffffffffff82169050919050565b60006100a98261007e565b9050919050565b6100b98161009e565b81146100c457600080fd5b50565b6000815190506100d6816100b0565b92915050565b6000602082840312156100f2576100f1610079565b5b6000610100848285016100c7565b91505092915050565b610d8c806101186000396000f3fe608060405234801561001057600080fd5b50600436106100415760003560e01c806382a6213714610046578063921b004b14610062578063990dc9db1461007e575b600080fd5b610060600480360381019061005b9190610a0f565b61009a565b005b61007c60048036038101906100779190610a72565b610307565b005b61009860048036038101906100939190610a72565b610595565b005b338073ffffffffffffffffffffffffffffffffffffffff16600160009054906101000a900473ffffffffffffffffffffffffffffffffffffffff1673ffffffffffffffffffffffffffffffffffffffff161461012b576040517f08c379a000000000000000000000000000000000000000000000000000000000815260040161012290610b0f565b60405180910390fd5b81600080156101ce576000808373ffffffffffffffffffffffffffffffffffffffff1673ffffffffffffffffffffffffffffffffffffffff16815260200190815260200160002060000160009054906101000a900460ff16151560011515146101c9576040517f08c379a00000000000000000000000000000000000000000000000000000000081526004016101c090610b7b565b60405180910390fd5b610264565b6000808373ffffffffffffffffffffffffffffffffffffffff1673ffffffffffffffffffffffffffffffffffffffff16815260200190815260200160002060000160009054906101000a900460ff1615156000151514610263576040517f08c379a000000000000000000000000000000000000000000000000000000000815260040161025a90610be7565b60405180910390fd5b5b60016000808673ffffffffffffffffffffffffffffffffffffffff1673ffffffffffffffffffffffffffffffffffffffff16815260200190815260200160002060000160006101000a81548160ff0219169083151502179055508373ffffffffffffffffffffffffffffffffffffffff167f4c9ae0978fea49477e19c70cbad0b4ff481cb0235f3b8694cf48c9e40c52a4f360405160405180910390a250505050565b338073ffffffffffffffffffffffffffffffffffffffff16600160009054906101000a900473ffffffffffffffffffffffffffffffffffffffff1673ffffffffffffffffffffffffffffffffffffffff1614610398576040517f08c379a000000000000000000000000000000000000000000000000000000000815260040161038f90610b0f565b60405180910390fd5b826001801561043b576000808373ffffffffffffffffffffffffffffffffffffffff1673ffffffffffffffffffffffffffffffffffffffff16815260200190815260200160002060000160009054906101000a900460ff1615156001151514610436576040517f08c379a000000000000000000000000000000000000000000000000000000000815260040161042d90610b7b565b60405180910390fd5b6104d1565b6000808373ffffffffffffffffffffffffffffffffffffffff1673ffffffffffffffffffffffffffffffffffffffff16815260200190815260200160002060000160009054906101000a900460ff16151560001515146104d0576040517f08c379a00000000000000000000000000000000000000000000000000000000081526004016104c790610be7565b60405180910390fd5b5b836000808773ffffffffffffffffffffffffffffffffffffffff1673ffffffffffffffffffffffffffffffffffffffff16815260200190815260200160002060010160008282546105229190610c36565b925050819055508473ffffffffffffffffffffffffffffffffffffffff163373ffffffffffffffffffffffffffffffffffffffff167f5548c837ab068cf56a2c2479df0882a4922fd203edb7517321831d95078c5f62866040516105869190610c9b565b60405180910390a35050505050565b3360018015610638576000808373ffffffffffffffffffffffffffffffffffffffff1673ffffffffffffffffffffffffffffffffffffffff16815260200190815260200160002060000160009054906101000a900460ff1615156001151514610633576040517f08c379a000000000000000000000000000000000000000000000000000000000815260040161062a90610b7b565b60405180910390fd5b6106ce565b6000808373ffffffffffffffffffffffffffffffffffffffff1673ffffffffffffffffffffffffffffffffffffffff16815260200190815260200160002060000160009054906101000a900460ff16151560001515146106cd576040517f08c379a00000000000000000000000000000000000000000000000000000000081526004016106c490610be7565b60405180910390fd5b5b8360018015610771576000808373ffffffffffffffffffffffffffffffffffffffff1673ffffffffffffffffffffffffffffffffffffffff16815260200190815260200160002060000160009054906101000a900460ff161515600115151461076c576040517f08c379a000000000000000000000000000000000000000000000000000000000815260040161076390610b7b565b60405180910390fd5b610807565b6000808373ffffffffffffffffffffffffffffffffffffffff1673ffffffffffffffffffffffffffffffffffffffff16815260200190815260200160002060000160009054906101000a900460ff1615156000151514610806576040517f08c379a00000000000000000000000000000000000000000000000000000000081526004016107fd90610be7565b60405180910390fd5b5b3385806000808473ffffffffffffffffffffffffffffffffffffffff1673ffffffffffffffffffffffffffffffffffffffff16815260200190815260200160002060010154101561088d576040517f08c379a000000000000000000000000000000000000000000000000000000000815260040161088490610d02565b60405180910390fd5b866000803373ffffffffffffffffffffffffffffffffffffffff1673ffffffffffffffffffffffffffffffffffffffff16815260200190815260200160002060010160008282546108de9190610d22565b92505081905550866000808a73ffffffffffffffffffffffffffffffffffffffff1673ffffffffffffffffffffffffffffffffffffffff16815260200190815260200160002060010160008282546109369190610c36565b925050819055508773ffffffffffffffffffffffffffffffffffffffff163373ffffffffffffffffffffffffffffffffffffffff167f5548c837ab068cf56a2c2479df0882a4922fd203edb7517321831d95078c5f628960405161099a9190610c9b565b60405180910390a35050505050505050565b600080fd5b600073ffffffffffffffffffffffffffffffffffffffff82169050919050565b60006109dc826109b1565b9050919050565b6109ec816109d1565b81146109f757600080fd5b50565b600081359050610a09816109e3565b92915050565b600060208284031215610a2557610a246109ac565b5b6000610a33848285016109fa565b91505092915050565b6000819050919050565b610a4f81610a3c565b8114610a5a57600080fd5b50565b600081359050610a6c81610a46565b92915050565b60008060408385031215610a8957610a886109ac565b5b6000610a97858286016109fa565b9250506020610aa885828601610a5d565b9150509250929050565b600082825260208201905092915050565b7f4e6f7420746865206f776e657200000000000000000000000000000000000000600082015250565b6000610af9600d83610ab2565b9150610b0482610ac3565b602082019050919050565b60006020820190508181036000830152610b2881610aec565b9050919050565b7f4163636f756e74206d7573742062652061637469766174656400000000000000600082015250565b6000610b65601983610ab2565b9150610b7082610b2f565b602082019050919050565b60006020820190508181036000830152610b9481610b58565b9050919050565b7f4163636f756e7420697320616c72656164792061637469766174656400000000600082015250565b6000610bd1601c83610ab2565b9150610bdc82610b9b565b602082019050919050565b60006020820190508181036000830152610c0081610bc4565b9050919050565b7f4e487b7100000000000000000000000000000000000000000000000000000000600052601160045260246000fd5b6000610c4182610a3c565b9150610c4c83610a3c565b9250827fffffffffffffffffffffffffffffffffffffffffffffffffffffffffffffffff03821115610c8157610c80610c07565b5b828201905092915050565b610c9581610a3c565b82525050565b6000602082019050610cb06000830184610c8c565b92915050565b7f4e6f7420656e6f7567682062616c616e63650000000000000000000000000000600082015250565b6000610cec601283610ab2565b9150610cf782610cb6565b602082019050919050565b60006020820190508181036000830152610d1b81610cdf565b9050919050565b6000610d2d82610a3c565b9150610d3883610a3c565b925082821015610d4b57610d4a610c07565b5b82820390509291505056fea26469706673582212203fddce2b38ecb11dd7d62566e3f5ffd69ba396358ce23a9e86a837d3a2cfeb9064736f6c634300080a0033",
  "immutableReferences": {},
  "source": "// SPDX-License-Identifier: GPL-3.0\r\n\r\npragma solidity 0.8.10;\r\n\r\nimport './IBank.sol';\r\n\r\ncontract Bank is IBank{\r\n    // state\r\n    struct Account{\r\n        bool activated;\r\n        uint256 balance;\r\n    }\r\n\r\n    mapping(address => Account) private _accounts;\r\n    address _owner;\r\n\r\n    // events\r\n    event AccountActivation(address indexed account);\r\n    event Deposit(address indexed from, address indexed account, uint256 amount);\r\n    event Transfer(address indexed from, address indexed To, uint256 amount);\r\n\r\n    // modifiers\r\n    modifier checkAccountActivation(address account, bool Activated){\r\n        if(Activated) require(true == _accounts[account].activated, \"Account must be activated\");\r\n        else require(false == _accounts[account].activated, \"Account is already activated\");\r\n        _;\r\n    }\r\n\r\n    modifier isOwner(address account){\r\n        require(_owner == account, \"Not the owner\");\r\n        _;\r\n    }\r\n\r\n    modifier isBalanceEnough(address account, uint256 amount){\r\n        require(_accounts[account].balance >= amount, \"Not enough balance\");\r\n        _;\r\n    }\r\n\r\n    // constructor\r\n    constructor(address owner){\r\n        _owner = owner;\r\n    }\r\n\r\n    // functions\r\n    function activateAccount(address account) external\r\n        isOwner(msg.sender)\r\n        checkAccountActivation(account, false)\r\n    {\r\n        _accounts[account].activated = true;\r\n\r\n        emit AccountActivation(account);\r\n    }\r\n\r\n    function depositFunds(address account, uint256 funds) external\r\n        isOwner(msg.sender)\r\n        checkAccountActivation(account, true)\r\n    {\r\n        _accounts[account].balance += funds;\r\n\r\n        emit Deposit(msg.sender, account, funds);\r\n    }\r\n\r\n    function transferFunds(address To, uint256 funds) external\r\n        checkAccountActivation(msg.sender, true)\r\n        checkAccountActivation(To, true)\r\n        isBalanceEnough(msg.sender, funds)\r\n    {\r\n        _accounts[msg.sender].balance -= funds;\r\n        _accounts[To].balance += funds;\r\n\r\n        emit Deposit(msg.sender, To, funds);\r\n    }\r\n}",
  "sourcePath": "C:\\Users\\d-aam\\GitHub\\IOBuildersTest\\Blockchain\\contracts\\Bank.sol",
  "compiler": {
    "name": "solc",
    "version": "0.8.10+commit.fc410830.Emscripten.clang"
  },
  "schemaVersion": "3.4.3",
  "updatedAt": "2022-07-06T14:37:30.727Z",
  "devdoc": {
    "kind": "dev",
    "methods": {},
    "version": 1
  },
  "userdoc": {
    "kind": "user",
    "methods": {},
    "version": 1
  }
}